{
  "_format": "hh-sol-artifact-1",
  "contractName": "EscrowV2",
  "sourceName": "contracts/EscrowV2.sol",
  "abi": [
    {
      "anonymous": false,
      "inputs": [],
      "name": "Approved",
      "type": "event"
    },
    {
      "inputs": [],
      "name": "approve",
      "outputs": [],
      "stateMutability": "nonpayable",
      "type": "function"
    },
    {
      "inputs": [
        {
          "internalType": "contract ILendingPool",
          "name": "_pool",
          "type": "address"
        },
        {
          "internalType": "contract IERC20",
          "name": "_aTether",
          "type": "address"
        },
        {
          "internalType": "contract IERC20",
          "name": "_tether",
          "type": "address"
        },
        {
          "internalType": "address",
          "name": "_arbiter",
          "type": "address"
        },
        {
          "internalType": "address",
          "name": "_beneficiary",
          "type": "address"
        },
        {
          "internalType": "uint256",
          "name": "_amount",
          "type": "uint256"
        }
      ],
      "name": "depositTether",
      "outputs": [],
      "stateMutability": "nonpayable",
      "type": "function"
    },
    {
      "inputs": [
        {
          "internalType": "contract ILendingPool",
          "name": "_pool",
          "type": "address"
        },
        {
          "internalType": "contract IERC20",
          "name": "_aDai",
          "type": "address"
        },
        {
          "internalType": "contract IERC20",
          "name": "_dai",
          "type": "address"
        },
        {
          "internalType": "address",
          "name": "_arbiter",
          "type": "address"
        },
        {
          "internalType": "address",
          "name": "_beneficiary",
          "type": "address"
        },
        {
          "internalType": "uint256",
          "name": "_amount",
          "type": "uint256"
        }
      ],
      "name": "initialize",
      "outputs": [],
      "stateMutability": "nonpayable",
      "type": "function"
    }
  ],
  "bytecode": "0x608060405234801561001057600080fd5b5061121a806100206000396000f3fe608060405234801561001057600080fd5b50600436106100415760003560e01c806312424e3f1461004657806395b6ef0c14610050578063bb5393081461006c575b600080fd5b61004e610088565b005b61006a60048036038101906100659190610df2565b6104d6565b005b61008660048036038101906100819190610df2565b61097c565b005b600060029054906101000a900473ffffffffffffffffffffffffffffffffffffffff1673ffffffffffffffffffffffffffffffffffffffff163373ffffffffffffffffffffffffffffffffffffffff1614610118576040517f08c379a000000000000000000000000000000000000000000000000000000000815260040161010f90611094565b60405180910390fd5b6000600560009054906101000a900473ffffffffffffffffffffffffffffffffffffffff1673ffffffffffffffffffffffffffffffffffffffff166370a08231306040518263ffffffff1660e01b81526004016101759190610f9d565b60206040518083038186803b15801561018d57600080fd5b505afa1580156101a1573d6000803e3d6000fd5b505050506040513d601f19601f820116820180604052508101906101c59190610e7b565b9050600560009054906101000a900473ffffffffffffffffffffffffffffffffffffffff1673ffffffffffffffffffffffffffffffffffffffff1663095ea7b3600460009054906101000a900473ffffffffffffffffffffffffffffffffffffffff16836040518363ffffffff1660e01b8152600401610246929190610fef565b602060405180830381600087803b15801561026057600080fd5b505af1158015610274573d6000803e3d6000fd5b505050506040513d601f19601f820116820180604052508101906102989190610dc9565b50600460009054906101000a900473ffffffffffffffffffffffffffffffffffffffff1673ffffffffffffffffffffffffffffffffffffffff166369328dec600660009054906101000a900473ffffffffffffffffffffffffffffffffffffffff16600354600260009054906101000a900473ffffffffffffffffffffffffffffffffffffffff166040518463ffffffff1660e01b815260040161033e93929190611018565b602060405180830381600087803b15801561035857600080fd5b505af115801561036c573d6000803e3d6000fd5b505050506040513d601f19601f820116820180604052508101906103909190610e7b565b50600460009054906101000a900473ffffffffffffffffffffffffffffffffffffffff1673ffffffffffffffffffffffffffffffffffffffff166369328dec600660009054906101000a900473ffffffffffffffffffffffffffffffffffffffff167fffffffffffffffffffffffffffffffffffffffffffffffffffffffffffffffff600160009054906101000a900473ffffffffffffffffffffffffffffffffffffffff166040518463ffffffff1660e01b815260040161045493929190611018565b602060405180830381600087803b15801561046e57600080fd5b505af1158015610482573d6000803e3d6000fd5b505050506040513d601f19601f820116820180604052508101906104a69190610e7b565b507f5de8e1faddeb54f5a59778c514254ea03868310d878ada71ed5118bfc800ea0d60405160405180910390a150565b600060019054906101000a900460ff16806104fc575060008054906101000a900460ff16155b61053b576040517f08c379a0000000000000000000000000000000000000000000000000000000008152600401610532906110b4565b60405180910390fd5b60008060019054906101000a900460ff16159050801561058b576001600060016101000a81548160ff02191690831515021790555060016000806101000a81548160ff0219169083151502179055505b86600460006101000a81548173ffffffffffffffffffffffffffffffffffffffff021916908373ffffffffffffffffffffffffffffffffffffffff16021790555085600560006101000a81548173ffffffffffffffffffffffffffffffffffffffff021916908373ffffffffffffffffffffffffffffffffffffffff16021790555084600660006101000a81548173ffffffffffffffffffffffffffffffffffffffff021916908373ffffffffffffffffffffffffffffffffffffffff16021790555083600060026101000a81548173ffffffffffffffffffffffffffffffffffffffff021916908373ffffffffffffffffffffffffffffffffffffffff16021790555082600260006101000a81548173ffffffffffffffffffffffffffffffffffffffff021916908373ffffffffffffffffffffffffffffffffffffffff16021790555033600160006101000a81548173ffffffffffffffffffffffffffffffffffffffff021916908373ffffffffffffffffffffffffffffffffffffffff16021790555081600381905550600660009054906101000a900473ffffffffffffffffffffffffffffffffffffffff1673ffffffffffffffffffffffffffffffffffffffff166323b872dd3330856040518463ffffffff1660e01b815260040161077793929190610fb8565b602060405180830381600087803b15801561079157600080fd5b505af11580156107a5573d6000803e3d6000fd5b505050506040513d601f19601f820116820180604052508101906107c99190610dc9565b50600660009054906101000a900473ffffffffffffffffffffffffffffffffffffffff1673ffffffffffffffffffffffffffffffffffffffff1663095ea7b3600460009054906101000a900473ffffffffffffffffffffffffffffffffffffffff16846040518363ffffffff1660e01b8152600401610849929190610fef565b602060405180830381600087803b15801561086357600080fd5b505af1158015610877573d6000803e3d6000fd5b505050506040513d601f19601f8201168201806040525081019061089b9190610dc9565b50600460009054906101000a900473ffffffffffffffffffffffffffffffffffffffff1673ffffffffffffffffffffffffffffffffffffffff1663e8eda9df600660009054906101000a900473ffffffffffffffffffffffffffffffffffffffff16843060006040518563ffffffff1660e01b8152600401610920949392919061104f565b600060405180830381600087803b15801561093a57600080fd5b505af115801561094e573d6000803e3d6000fd5b5050505080156109735760008060016101000a81548160ff0219169083151502179055505b50505050505050565b85600460006101000a81548173ffffffffffffffffffffffffffffffffffffffff021916908373ffffffffffffffffffffffffffffffffffffffff16021790555084600760006101000a81548173ffffffffffffffffffffffffffffffffffffffff021916908373ffffffffffffffffffffffffffffffffffffffff16021790555083600860006101000a81548173ffffffffffffffffffffffffffffffffffffffff021916908373ffffffffffffffffffffffffffffffffffffffff16021790555082600060026101000a81548173ffffffffffffffffffffffffffffffffffffffff021916908373ffffffffffffffffffffffffffffffffffffffff16021790555081600260006101000a81548173ffffffffffffffffffffffffffffffffffffffff021916908373ffffffffffffffffffffffffffffffffffffffff16021790555033600160006101000a81548173ffffffffffffffffffffffffffffffffffffffff021916908373ffffffffffffffffffffffffffffffffffffffff16021790555080600381905550600860009054906101000a900473ffffffffffffffffffffffffffffffffffffffff1673ffffffffffffffffffffffffffffffffffffffff166323b872dd3330846040518463ffffffff1660e01b8152600401610b6893929190610fb8565b602060405180830381600087803b158015610b8257600080fd5b505af1158015610b96573d6000803e3d6000fd5b505050506040513d601f19601f82011682018060405250810190610bba9190610dc9565b50600860009054906101000a900473ffffffffffffffffffffffffffffffffffffffff1673ffffffffffffffffffffffffffffffffffffffff1663095ea7b3600460009054906101000a900473ffffffffffffffffffffffffffffffffffffffff16836040518363ffffffff1660e01b8152600401610c3a929190610fef565b602060405180830381600087803b158015610c5457600080fd5b505af1158015610c68573d6000803e3d6000fd5b505050506040513d601f19601f82011682018060405250810190610c8c9190610dc9565b50600460009054906101000a900473ffffffffffffffffffffffffffffffffffffffff1673ffffffffffffffffffffffffffffffffffffffff1663e8eda9df600860009054906101000a900473ffffffffffffffffffffffffffffffffffffffff16833060006040518563ffffffff1660e01b8152600401610d11949392919061104f565b600060405180830381600087803b158015610d2b57600080fd5b505af1158015610d3f573d6000803e3d6000fd5b50505050505050505050565b600081359050610d5a81611171565b92915050565b600081519050610d6f81611188565b92915050565b600081359050610d848161119f565b92915050565b600081359050610d99816111b6565b92915050565b600081359050610dae816111cd565b92915050565b600081519050610dc3816111cd565b92915050565b600060208284031215610ddb57600080fd5b6000610de984828501610d60565b91505092915050565b60008060008060008060c08789031215610e0b57600080fd5b6000610e1989828a01610d8a565b9650506020610e2a89828a01610d75565b9550506040610e3b89828a01610d75565b9450506060610e4c89828a01610d4b565b9350506080610e5d89828a01610d4b565b92505060a0610e6e89828a01610d9f565b9150509295509295509295565b600060208284031215610e8d57600080fd5b6000610e9b84828501610db4565b91505092915050565b610ead816110e5565b82525050565b610ebc8161115f565b82525050565b6000610ecf6026836110d4565b91507f417070726f7665206d7573742062652063616c6c65642062792074686520617260008301527f62697465722100000000000000000000000000000000000000000000000000006020830152604082019050919050565b6000610f35602e836110d4565b91507f496e697469616c697a61626c653a20636f6e747261637420697320616c72656160008301527f647920696e697469616c697a65640000000000000000000000000000000000006020830152604082019050919050565b610f9781611155565b82525050565b6000602082019050610fb26000830184610ea4565b92915050565b6000606082019050610fcd6000830186610ea4565b610fda6020830185610ea4565b610fe76040830184610f8e565b949350505050565b60006040820190506110046000830185610ea4565b6110116020830184610f8e565b9392505050565b600060608201905061102d6000830186610ea4565b61103a6020830185610f8e565b6110476040830184610ea4565b949350505050565b60006080820190506110646000830187610ea4565b6110716020830186610f8e565b61107e6040830185610ea4565b61108b6060830184610eb3565b95945050505050565b600060208201905081810360008301526110ad81610ec2565b9050919050565b600060208201905081810360008301526110cd81610f28565b9050919050565b600082825260208201905092915050565b60006110f082611135565b9050919050565b60008115159050919050565b600061110e826110e5565b9050919050565b6000611120826110e5565b9050919050565b600061ffff82169050919050565b600073ffffffffffffffffffffffffffffffffffffffff82169050919050565b6000819050919050565b600061116a82611127565b9050919050565b61117a816110e5565b811461118557600080fd5b50565b611191816110f7565b811461119c57600080fd5b50565b6111a881611103565b81146111b357600080fd5b50565b6111bf81611115565b81146111ca57600080fd5b50565b6111d681611155565b81146111e157600080fd5b5056fea2646970667358221220a58a58a6752d415167de4a259fea2ed47e80d1e5ccf75d1f8290d6a61539872064736f6c63430008000033",
  "linkReferences": {},
  "deployedLinkReferences": {}
}