{
  "_format": "hh-sol-artifact-1",
  "contractName": "Escrow",
  "sourceName": "contracts/BasicLendingProtocol.sol",
  "abi": [
    {
      "anonymous": false,
      "inputs": [],
      "name": "Approved",
      "type": "event"
    },
    {
      "inputs": [],
      "name": "approve",
      "outputs": [],
      "stateMutability": "nonpayable",
      "type": "function"
    },
    {
      "inputs": [
        {
          "internalType": "contract ILendingPool",
          "name": "_pool",
          "type": "address"
        },
        {
          "internalType": "contract IERC20",
          "name": "_aDai",
          "type": "address"
        },
        {
          "internalType": "contract IERC20",
          "name": "_dai",
          "type": "address"
        },
        {
          "internalType": "address",
          "name": "_arbiter",
          "type": "address"
        },
        {
          "internalType": "address",
          "name": "_beneficiary",
          "type": "address"
        },
        {
          "internalType": "uint256",
          "name": "_amount",
          "type": "uint256"
        }
      ],
      "name": "initialize",
      "outputs": [],
      "stateMutability": "nonpayable",
      "type": "function"
    }
  ],
  "bytecode": "0x608060405234801561001057600080fd5b50610b3f806100206000396000f3fe608060405234801561001057600080fd5b50600436106100365760003560e01c806312424e3f1461003b57806395b6ef0c14610045575b600080fd5b610043610061565b005b61005f600480360381019061005a91906107c2565b6104af565b005b600060029054906101000a900473ffffffffffffffffffffffffffffffffffffffff1673ffffffffffffffffffffffffffffffffffffffff163373ffffffffffffffffffffffffffffffffffffffff16146100f1576040517f08c379a00000000000000000000000000000000000000000000000000000000081526004016100e8906109d9565b60405180910390fd5b6000600560009054906101000a900473ffffffffffffffffffffffffffffffffffffffff1673ffffffffffffffffffffffffffffffffffffffff166370a08231306040518263ffffffff1660e01b815260040161014e919061095e565b60206040518083038186803b15801561016657600080fd5b505afa15801561017a573d6000803e3d6000fd5b505050506040513d601f19601f8201168201806040525081019061019e919061084b565b9050600560009054906101000a900473ffffffffffffffffffffffffffffffffffffffff1673ffffffffffffffffffffffffffffffffffffffff1663095ea7b3600460009054906101000a900473ffffffffffffffffffffffffffffffffffffffff16836040518363ffffffff1660e01b815260040161021f929190610979565b602060405180830381600087803b15801561023957600080fd5b505af115801561024d573d6000803e3d6000fd5b505050506040513d601f19601f820116820180604052508101906102719190610799565b50600460009054906101000a900473ffffffffffffffffffffffffffffffffffffffff1673ffffffffffffffffffffffffffffffffffffffff166369328dec600660009054906101000a900473ffffffffffffffffffffffffffffffffffffffff16600354600260009054906101000a900473ffffffffffffffffffffffffffffffffffffffff166040518463ffffffff1660e01b8152600401610317939291906109a2565b602060405180830381600087803b15801561033157600080fd5b505af1158015610345573d6000803e3d6000fd5b505050506040513d601f19601f82011682018060405250810190610369919061084b565b50600460009054906101000a900473ffffffffffffffffffffffffffffffffffffffff1673ffffffffffffffffffffffffffffffffffffffff166369328dec600660009054906101000a900473ffffffffffffffffffffffffffffffffffffffff167fffffffffffffffffffffffffffffffffffffffffffffffffffffffffffffffff600160009054906101000a900473ffffffffffffffffffffffffffffffffffffffff166040518463ffffffff1660e01b815260040161042d939291906109a2565b602060405180830381600087803b15801561044757600080fd5b505af115801561045b573d6000803e3d6000fd5b505050506040513d601f19601f8201168201806040525081019061047f919061084b565b507f5de8e1faddeb54f5a59778c514254ea03868310d878ada71ed5118bfc800ea0d60405160405180910390a150565b600060019054906101000a900460ff16806104d5575060008054906101000a900460ff16155b610514576040517f08c379a000000000000000000000000000000000000000000000000000000000815260040161050b906109f9565b60405180910390fd5b60008060019054906101000a900460ff161590508015610564576001600060016101000a81548160ff02191690831515021790555060016000806101000a81548160ff0219169083151502179055505b86600460006101000a81548173ffffffffffffffffffffffffffffffffffffffff021916908373ffffffffffffffffffffffffffffffffffffffff16021790555085600560006101000a81548173ffffffffffffffffffffffffffffffffffffffff021916908373ffffffffffffffffffffffffffffffffffffffff16021790555084600660006101000a81548173ffffffffffffffffffffffffffffffffffffffff021916908373ffffffffffffffffffffffffffffffffffffffff16021790555083600060026101000a81548173ffffffffffffffffffffffffffffffffffffffff021916908373ffffffffffffffffffffffffffffffffffffffff16021790555082600260006101000a81548173ffffffffffffffffffffffffffffffffffffffff021916908373ffffffffffffffffffffffffffffffffffffffff16021790555033600160006101000a81548173ffffffffffffffffffffffffffffffffffffffff021916908373ffffffffffffffffffffffffffffffffffffffff1602179055508160038190555080156107125760008060016101000a81548160ff0219169083151502179055505b50505050505050565b60008135905061072a81610a96565b92915050565b60008151905061073f81610aad565b92915050565b60008135905061075481610ac4565b92915050565b60008135905061076981610adb565b92915050565b60008135905061077e81610af2565b92915050565b60008151905061079381610af2565b92915050565b6000602082840312156107ab57600080fd5b60006107b984828501610730565b91505092915050565b60008060008060008060c087890312156107db57600080fd5b60006107e989828a0161075a565b96505060206107fa89828a01610745565b955050604061080b89828a01610745565b945050606061081c89828a0161071b565b935050608061082d89828a0161071b565b92505060a061083e89828a0161076f565b9150509295509295509295565b60006020828403121561085d57600080fd5b600061086b84828501610784565b91505092915050565b61087d81610a2a565b82525050565b6000610890602683610a19565b91507f417070726f7665206d7573742062652063616c6c65642062792074686520617260008301527f62697465722100000000000000000000000000000000000000000000000000006020830152604082019050919050565b60006108f6602e83610a19565b91507f496e697469616c697a61626c653a20636f6e747261637420697320616c72656160008301527f647920696e697469616c697a65640000000000000000000000000000000000006020830152604082019050919050565b61095881610a8c565b82525050565b60006020820190506109736000830184610874565b92915050565b600060408201905061098e6000830185610874565b61099b602083018461094f565b9392505050565b60006060820190506109b76000830186610874565b6109c4602083018561094f565b6109d16040830184610874565b949350505050565b600060208201905081810360008301526109f281610883565b9050919050565b60006020820190508181036000830152610a12816108e9565b9050919050565b600082825260208201905092915050565b6000610a3582610a6c565b9050919050565b60008115159050919050565b6000610a5382610a2a565b9050919050565b6000610a6582610a2a565b9050919050565b600073ffffffffffffffffffffffffffffffffffffffff82169050919050565b6000819050919050565b610a9f81610a2a565b8114610aaa57600080fd5b50565b610ab681610a3c565b8114610ac157600080fd5b50565b610acd81610a48565b8114610ad857600080fd5b50565b610ae481610a5a565b8114610aef57600080fd5b50565b610afb81610a8c565b8114610b0657600080fd5b5056fea26469706673582212203db16754bf7973b3ab0fda43b3461923b1a44a5137eccfb8d375ebd6f06928fb64736f6c63430008000033",
  "linkReferences": {},
  "deployedLinkReferences": {}
}